:100000000C28FF00FF00FF00C33080318600203045
:1000100087008231642A09000D282030F001F101A7
:10002000F201F30184000030850008305322A03033
:100030008400003085004530532220009530860032
:100040002030870023288F3032009905F030990541
:100050001B1E2828283021008C0023008C013930F9
:1000600024008C0003303C00A40014303D009400B8
:10007000243023009E009F1190309D0020008C1A98
:1000800086288C1E4128CF309B218230E9003A30EF
:10009000E800EC2170302000E900F830E800013081
:1000A000EC00043070020318612803227008243E1B
:1000B000840085016A088000F00AE80A0319E90A49
:1000C00051287008243E84002230850180019B2144
:1000D0008230E9003030E800EC219321EC21063039
:1000E0002000EA008230E9004C30E800EC21932146
:1000F000EC21F0302000E800F83068020318862870
:10010000FF30E9001A222000E80A7C282230230070
:100110009B0096287308A03E8400850123001908DF
:100120008000F30A20009112A001A1012000911A81
:100130008A28A00A0319A10A200F9628210A031D64
:10014000962822000C1405302000EA0071080319DB
:1001500010292100200BD328FF302000EC00433071
:100160007306031DCE28210022082000EB00210089
:1001700021082000EA00A330E8000030E900023046
:100180006B02603003196A02031CCE2808306B0230
:10019000003003196A020318CE28A12120006C0840
:1001A0002100A100102902302006031DF62870301E
:1001B0002000E900F330E8000130EC000322F430C5
:1001C00021002302031CEC28F83023020318EC283A
:1001D00020006A0A031D1029210021082000E800E0
:1001E000210023082000E9001A22102904302006EB
:1001F000031D0C2922082000E9002100210820000D
:10020000E8000130EC0003226B082100A40020006C
:100210006A082100A30010290630200603190100F6
:10022000053021002006031986290B302006031D06
:10023000382970302000E900F430E8000130EC008B
:10024000A130F101F10AA20070306902F8300319FF
:1002500068020318862903222208840085016A089F
:100260000006031DF101E80A0319E90AA20A24297C
:100270007308031D862970302000E900F030E80083
:100280000130EC0003226A08A3007030E900FC3062
:10029000E8000130EC0003226A082306031D8429CC
:1002A0006A0A031984290230E9006030E800EC0191
:1002B000F201083069020030031968020318692945
:1002C00003226A08F2076B08F207E80A0319E90A31
:1002D00059297030E900F130E8000130EC000322C8
:1002E0006A087206031D7F29720803197F292200FC
:1002F0000C101F303F00ED008231602A8429F0305D
:10030000E800FF30E9001A222000EA01A0302000B6
:10031000E8000030E900EC21FF302100A000F301EB
:1003200022000C10962805302000EA002430E80056
:100330000030E900080023009B0009302000EA009B
:10034000080041312000EC0131009511151395187A
:10035000A729E32115161515432231009516003003
:10036000FF3FE3217F3FFE00FF01FE35FF0D200030
:1003700068087E07840069087F3D8500003F3100E2
:100380009300013F940013082000EC07310014088B
:100390002000EC077F3F1F3A031DD0293100951242
:1003A00043222000EA0A0319EB0A7F3F013EFF3F88
:1003B0007F3FFF0020307F02031CB129EC13310086
:1003C00015117F31080020006B08310092002000D9
:1003D0006A0831009100080020006A080319FF290B
:1003E0006808840069088500000823009A0020003E
:1003F000E80A0319E90AEA03111AEC29FC29230087
:100400009E180800FF2920006C0C3100031C1513F6
:10041000031815172000690831002A22151400005E
:100420000000310014082000EB0031001308200008
:10043000EA000800310095111517151570302A22B1
:100440002000690831009300432231009518252AC5
:100450001511080092002000680831009100080082
:10046000413454342B344E3441344D3445344334C8
:1004700044340034413454342B3442344134553400
:10048000443437340034553031009600AA30960099
:100490009514000000000800413454342B345034CB
:1004A00049344E340034640080010131890B542AF0
:1004B0000034FF00FF00FF00FF00FF00FF00FF000F
:020000040001F9
:08000E00FCFF52FFFFDFFFFFC2
:08E1F00031343234333434348D
:02E1FC000134EC
:00000001FF
