:100000000C28FF00FF00FF00C33080318600203045
:1000100087008231642A09000D282030F001F101A7
:10002000F201F30184000030850008305322A03033
:100030008400003085004530532220009530860032
:100040002030870023288F3032009905F030990541
:100050001B1E2828283021008C0023008C013930F9
:1000600024008C0003303C00A40014303D009400B8
:10007000243023009E009F1120008C1A8C288C1E97
:100080003F28CF3023009B0090309D000830200097
:10009000EA008230E9003A30E800EC2170302000BC
:1000A000E900F830E8000130EC0004307002031879
:1000B000652803227008243E840085016A088000B8
:1000C000F00AE80A0319E90A552823009D012230A5
:1000D0009B0090309D0009302000EA008230E9004A
:1000E0003030E800EC219921EC2106302000EA00B4
:1000F0008230E9004C30E800EC219921EC21F0300D
:100100002000E800F830680203188C28FF30E9006E
:100110001A222000E80A8228223023009B009C2813
:100120007308A03E84008501230019088000F30AAB
:1001300020009112A001A1012000911A9028A00A8C
:100140000319A10A200F9C28210A031D9C282200C4
:100150000C1405302000EA0071080319162921004B
:10016000200BD928FF302000EC0043307306031D1C
:10017000D428210022082000EB00210021082000C3
:10018000EA00A330E8000030E90002306B02603082
:1001900003196A02031CD42808306B0200300319CB
:1001A0006A020318D428A12120006C082100A100B4
:1001B000162902302006031DFC2870302000E900BB
:1001C000F330E8000130EC000322F4302100230278
:1001D000031CF228F83023020318F22820006A0AD0
:1001E000031D1629210021082000E8002100230812
:1001F0002000E9001A22162904302006031D1229C6
:1002000022082000E900210021082000E800013038
:10021000EC0003226B082100A40020006A082100E2
:10022000A30016290630200603190100053021001D
:10023000200603198C290B302006031D3E2970303F
:100240002000E900F430E8000130EC00A130F101B9
:10025000F10AA20070306902F8300319680203182D
:100260008C2903222208840085016A080006031DE8
:10027000F101E80A0319E90AA20A2A297308031DF1
:100280008C2970302000E900F030E8000130EC00EB
:1002900003226A08A3007030E900FC30E800013056
:1002A000EC0003226A082306031D8A296A0A03193F
:1002B0008A290230E9006030E800EC01F2010830E0
:1002C000690200300319680203186F2903226A08C3
:1002D000F2076B08F207E80A0319E90A5F29703090
:1002E000E900F130E8000130EC0003226A087206F0
:1002F000031D852972080319852922000C101F305F
:100300003F00ED008231602A8A29F030E800FF309A
:10031000E9001A222000EA01A0302000E8000030A5
:10032000E900EC21FF302100A000F30122000C10B5
:100330009C2804302000EA002430E8000030E90066
:10034000080041312000EC0131009511151395187A
:10035000A729E32115161515432231009516003003
:10036000FF3FE3217F3FFE00FF01FE35FF0D200030
:1003700068087E07840069087F3D8500003F3100E2
:100380009300013F940013082000EC07310014088B
:100390002000EC077F3F1F3A031DD0293100951242
:1003A00043222000EA0A0319EB0A7F3F013EFF3F88
:1003B0007F3FFF0020307F02031CB129EC13310086
:1003C00015117F31080020006B08310092002000D9
:1003D0006A0831009100080020006A080319FF290B
:1003E0006808840069088500000823009A0020003E
:1003F000E80A0319E90AEA03111AEC29FC29230087
:100400009E180800FF2920006C0C3100031C1513F6
:10041000031815172000690831002A22151400005E
:100420000000310014082000EB0031001308200008
:10043000EA000800310095111517151570302A22B1
:100440002000690831009300432231009518252AC5
:100450001511080092002000680831009100080082
:10046000413454342B344E3441344D3445344334C8
:1004700044340034413454342B3442344134553400
:10048000443437340034553031009600AA30960099
:100490009514000000000800413454342B345034CB
:1004A00049344E340034640080010131890B542AF0
:1004B0000034FF00FF00FF00FF00FF00FF00FF000F
:020000040001F9
:08000E00FCFF52FFFFDFFFFFC2
:08E1F00031343234333434348D
:02E1FC000134EC
:00000001FF
