:100000000C28FF00FF00FF00C33080318600203045
:1000100087008231A42A09000D282030F001F10167
:10002000F201F30184000030850008307B22A0300B
:1000300084000030850045307B222000953086000A
:100040002030870023288F3032009905F030990541
:100050001B1E2828283021008C0023008C013930F9
:1000600024008C0003303C00A40014303D009400B8
:10007000243023009E009F1190309D0020008C1A98
:100080008D288C1E4128CF3023009B000830200093
:10009000EA008230E9006230E80014229A21F5215A
:1000A00070302000E900F830E8000130EC00043046
:1000B0007002031867282B227008243E84008501F3
:1000C0006A088000F00AE80A0319E90A5728223072
:1000D00023009B0009302000EA008230E9005830FC
:1000E000E8001422A22114229A21F52106302000D2
:1000F000EA008230E9007430E8001422A2211422C0
:10010000F0302000E800F830680203188D28FF3036
:10011000E90042222000E80A8328223023009B00C5
:100120009D287308A03E84008501230019088000E3
:10013000F30A20009112A001A1012000911A912838
:10014000A00A0319A10A200F9D28210A031D9D283A
:1001500022000C1405302000EA0071080319172949
:100160002100200BDA28FF302000EC00433073061A
:10017000031DD528210022082000EB0021002108C2
:100180002000EA00A330E8000030E90002306B02F2
:10019000A03003196A02031CD52808306B02003016
:1001A00003196A020318D528AA2120006C0821002F
:1001B000A100172902302006031DFD287030200001
:1001C000E900F330E8000130EC002B22F43021008C
:1001D0002302031CF328F83023020318F32820001D
:1001E0006A0A031D1729210021082000E8002100C8
:1001F00023082000E9004222172904302006031DAD
:10020000132922082000E900210021082000E8002D
:100210000130EC002B226B082100A40020006A08AA
:100220002100A3001729063020060319010005301C
:100230002100200603198D290B302006031D3F29BC
:1002400070302000E900F430E8000130EC00A1300B
:10025000F101F10AA20070306902F8300319680256
:1002600003188D292B222208840085016A080006C4
:10027000031DF101E80A0319E90AA20A2B297308F0
:10028000031D8B2970302000E900F030E8000130B8
:10029000EC002B226A08A3007030E900FC30E80073
:1002A0000130EC002B226A082306031D8B296A0A01
:1002B00003198B290230E900A030E800EC01F201BB
:1002C00008306902003003196802031870292B22D4
:1002D0006A08F2076B08F207E80A0319E90A6029BD
:1002E0007030E900F130E8000130EC002B226A08A0
:1002F0007206031D862972080319862922000C1034
:100300001F303F00ED008231A02A8B29F030E80039
:10031000FF30E90042222000EA01A0302000E8007E
:100320000030E9001422FF302100A000F301220078
:100330000C109D28FF301E001E0002301E000030F1
:100340001E00080004302000EA002430E8000030DD
:10035000E900080041312000EC013100951115132E
:100360009518B029EC21151615156B22310095163C
:100370000030FF3FEC217F3FFE00FF01FE35FF0D07
:10038000200068087E07840069087F3D8500003FE3
:1003900031009300013F940013082000EC07310066
:1003A00014082000EC077F3F1F3A031DD9293100B4
:1003B00095126B222000EA0A0319EB0A7F3F013EE7
:1003C000FF3F7F3FFF0020307F02031CBA29EC1360
:1003D000310015117F31080020006B0831009200B8
:1003E00020006A0831009100080006088400070810
:1003F000850001303C31800200300131803B013109
:10040000803B0131803B3D311200FF3AF400120085
:10041000FF3AF4041200FF3AF4041200FF3AF40425
:10042000031DF5297C31080020006A080319272ADA
:100430006808840069088500000823009A002000ED
:10044000E80A0319E90AEA03111A142A242A2300E4
:100450009E180800272A20006C0C3100031C15137D
:1004600003181517200069083100522215140000E6
:100470000000310014082000EB00310013082000B8
:10048000EA00080031009511151715157030522239
:1004900020006908310093006B22310095184D2A25
:1004A0001511080092002000680831009100080032
:1004B000413454342B344E3441344D344534433478
:1004C00044340034413454342B34423441345534B0
:1004D000443437340034553031009600AA30960049
:1004E0009514000000000800413454342B3450347B
:1004F00049344E340034640080010131890B7C2A78
:100500000034FF00FF00FF00FF00FF00FF00FF00BE
:10051000FF00FF00FF00FF00FF00FF00FF00FF00E3
:10052000FF00FF00FF00FF00FF00FF00FF00FF00D3
:10053000FF00FF00FF00FF00FF00FF00FF00FF00C3
:020000040001F9
:08000E00FCFF52FFFFDFFFFFC2
:08E1F00031343234333435348C
:02E1FC000134EC
:00000001FF
