:100000000C28FF00FF00FF009F3080318600203069
:1000100087008231042A09000D282030F001F10107
:10002000F2018400003085004730F02120004D307F
:100030008600203087001C288F304131320099051E
:10004000F03099051B1E2228283021008C00230047
:100050008C01393024008C0003303C00A4001430A3
:100060003D009400243023009E009F1120008C1A34
:1000700054288C1E3928CF3023009B0090309D00DF
:1000800009302000EA008130E900DE30E800CB21B1
:10009000F030E800F830680203185428FF30E90017
:1000A000B5212000E80A4A28223023009B00903026
:1000B0009D0066287208223E8400850123001908ED
:1000C0008000F20A20009112A001A1012000911AE3
:1000D0005A28A00A0319A10A200F6628210A031D25
:1000E000662822000C1405302000EA00700803196D
:1000F000D028220B9B28FF30EC0043307206031DF2
:1001000098282408EB002308EA002530E800003096
:10011000E90002306B02003003196A02031C9828C0
:1001200008306B02003003196A0203189828462130
:100130006C08A300D02802302206031DA52823083E
:10014000E8002508E900B521D0280330220603196C
:10015000AD2804302206031DBA282408E90023082C
:10016000E8002208FD3EEC009E216B08A6006A080C
:10017000A500D02806302206031DC0280100D02883
:100180000A302206031DD0282408E9002308E800CD
:100190006808840069088500003FA500013FA600AB
:1001A000053020002206031939290B302206031DD1
:1001B000F9287030E900F430E8000130EC00233019
:1001C000F001F00AFF3F70306902F830031968024D
:1001D000031839299E21E80A0319E90A7F3F8400A0
:1001E00085016A080006031DF0017F3F013EFF3FC5
:1001F000E3287208031D39297030E900F030E80067
:100200000130EC009E21AA306A06031D3729023016
:10021000E900E801EC01F10108306902003003193E
:10022000680203181C299E216A08F1076B08F10770
:10023000E80A0319E90A0C297030E900F130E800F6
:100240000130EC009E216A087106031D32297108F5
:100250000319322922000C101F303F00ED008231BB
:10026000002A3729F030E800FF30E900B5212000EE
:10027000EA012230E8000030E900CB21FF30A00184
:10028000A101A200F20122000C10662800304231C8
:10029000FF3F31009511151395184C29952115161E
:1002A0001515E721310095160030FE3F9521882174
:1002B0000008310093007F3FF40013087407FF3FEC
:1002C0008821003FFE00013FFF00310094007F3F86
:1002D000F40014087407FF3F7E3F1F3A031995127C
:1002E000E7212000EA0A0319EB0A7E3F013EFE3FA8
:1002F0007E3FFF0020307F02031C56297F3F7F395D
:10030000FF3F310015117F3F2000EC007E310800D7
:100310007E3FFE00FF01FE35FF0D200068087E07CE
:10032000840069087F3D8500080020006A083100CC
:10033000910020006B0831009200080020006C0C36
:100340003100031C1513031815172000690831002C
:10035000C521151400000000310014082000EB0036
:10036000310013082000EA0008003100951115172C
:1003700015157030C5212000690831009300E72170
:1003800031009518C0291511080092002000680856
:1003900031009100080020006A080319080068086D
:1003A000840069088500000823009A002000E80AFC
:1003B0000319E90AEA03111ACB29DB294134543421
:1003C0002B344234413455344434373400345530BE
:1003D00031009600AA309600951400000000080035
:1003E000640080010131890BF1290034FF00FF0016
:1003F000FF00FF00FF00FF00FF00FF00FF00FF0005
:020000040001F9
:08000E00FCFF52FFFFDFFFFFC2
:02E1FC000134EC
:00000001FF
