:100000000C28FF00FF00FF00C33080318600203045
:1000100087008231642A09000D282030F001F101A7
:10002000F201F30184000030850008305622A03030
:10003000840000308500453056222000953086002F
:100040002030870023288F3032009905F030990541
:100050001B1E2828283021008C0023008C013930F9
:1000600024008C0003303C00A40014303D009400B8
:10007000243023009E009F1120008C1A87288C1E9C
:100080003F28CF3023009B0090309D000930200096
:10009000EA008230E9003D30E80020227030E900BB
:1000A000F830E8000130EC000430700203186428D6
:1000B000F3217008243E840085016A088000F00A5C
:1000C000E80A0319E90A54287008243E840009301C
:1000D00085018001EA008230E9003330E800202207
:1000E000942120220630EA008230E9004F30E800F7
:1000F000202294212022F030E800F8306802031812
:100100008728FF30E9000A222000E80A7D282230F3
:1001100023009B0090309D0099287308A03E840026
:100120008501230019088000F30A20009112A00124
:10013000A1012000911A8D28A00A0319A10A200FFD
:100140009928210A031D992822000C14053020004B
:10015000EA007108031912292100200BD528FF306D
:100160002000EC0043307306031DD1282100220833
:100170002000EB00210021082000EA00A330E80065
:100180000030E90002306B02603003196A02031C80
:10019000D12808306B02003003196A020318D128F5
:1001A0009B216C082100A100122902302006031DAA
:1001B000F82870302000E900F330E8000130EC004E
:1001C000F321F43021002302031CEE28F83023022F
:1001D0000318EE2820006A0A031D122921002108B5
:1001E0002000E800210023082000E9000A2212294B
:1001F00004302006031D0E2922082000E9002100FA
:1002000021082000E8000130EC00F3216B082100F8
:10021000A40020006A082100A3001229063020064D
:1002200003190100053021002006031985290B3030
:100230002006031D3A2970302000E900F430E80060
:100240000130EC00A130F101F10AA2007030690226
:10025000F8300319680203188529F3212208840065
:1002600085016A080006031DF101E80A0319E90A7D
:10027000A20A26297308031D852970302000E90091
:10028000F030E8000130EC00F3216A08A300703080
:10029000E900FC30E8000130EC00F3216A08230695
:1002A000031D83290230E9006030E800EC01F2010F
:1002B0000830690200300319680203186829F32125
:1002C0006A08F2076B08F207E80A0319E90A5829D5
:1002D0007030E900F130E8000130EC00F3216A08E9
:1002E0007206031D7E29720803197E2922000C1054
:1002F0001F303F00ED008231602A8329F030E80092
:10030000FF30E9000A222000EA01A0302000E800C6
:100310000030E9002022FF30A001A1012100A0004F
:10032000F30122000C1099280530EA002430E8007F
:100330000030E900080000304231FF3F31009511E4
:1003400015139518A129EA21151615154622310015
:1003500095160030FE3FEA21DD21000831009300B0
:100360007F3FF40013087407FF3FDD21003FFE00CC
:10037000013FFF00310094007F3FF4001408740730
:10038000FF3F7E3F1F3A0319951246222000EA0ADA
:100390000319EB0A7E3F013EFE3F7E3FFF00203007
:1003A0007F02031CAB297F3F7F39FF3F31001511CE
:1003B0007F3F2000EC007E3108007E3FFE00FF0101
:1003C000FE35FF0D200068087E07840069087F3D28
:1003D0008500080020006A083100910020006B08A9
:1003E00031009200080020006C0C3100031C151332
:1003F000031815172000690831001A22151400008F
:100400000000310014082000EB0031001308200028
:10041000EA000800310095111517151570301A22E1
:100420002000690831009300462231009518152AF2
:1004300015110800920020006808310091000800A2
:1004400020006A080319080068088400690885000C
:10045000000823009A002000E80A0319E90AEA03C9
:10046000111A202A302A413454342B344E3441346A
:100470004D344534433444340034413454342B3403
:10048000423441345534443437340034553031002B
:100490009600AA3096009514000000000800413430
:1004A00054342B34503449344E34003464008001C9
:1004B0000131890B572A0034FF00FF00FF00FF00C5
:020000040001F9
:08000E00FCFF52FFFFDFFFFFC2
:08E1F00031343234333434348D
:02E1FC000134EC
:00000001FF
