:100000000C28FF00FF00FF00C33080318600203045
:1000100087008231A42A09000D282030F001F10167
:10002000F201F30184000030850008307F22A03007
:1000300084000030850045307F2220009530860006
:100040002030870023288F3032009905F030990541
:100050001B1E2828283021008C0023008C013930F9
:1000600024008C0003303C00A40014303D009400B8
:10007000243023009E009F1190309D0020008C1A98
:100080008D288C1E4128CF3023009B000830200093
:10009000EA008230E9006630E80018229E21F9214A
:1000A00070302000E900F830E8000130EC00043046
:1000B0007002031867282F227008243E84008501EF
:1000C0006A088000F00AE80A0319E90A5728223072
:1000D00023009B0009302000EA008230E9005C30F8
:1000E000E8001822A62118229E21F92106302000BE
:1000F000EA008230E9007830E8001822A6211822B0
:10010000F0302000E800F830680203188D28FF3036
:10011000E90046222000E80A8328223023009B00C1
:100120009D287308A03E84008501230019088000E3
:10013000F30A20009112A001A1012000911A912838
:10014000A00A0319A10A200F9D28210A031D9D283A
:1001500022000C1405302000EA0071080319172949
:100160002100200BDA28FF302000EC00433073061A
:10017000031DD528210022082000EB0021002108C2
:100180002000EA00A330E8000030E90002306B02F2
:10019000A03003196A02031CD52808306B02003016
:1001A00003196A020318D528AE2120006C0821002B
:1001B000A100172902302006031DFD287030200001
:1001C000E900F330E8000130EC002F22F430210088
:1001D0002302031CF328F83023020318F32820001D
:1001E0006A0A031D1729210021082000E8002100C8
:1001F00023082000E9004622172904302006031DA9
:10020000132922082000E900210021082000E8002D
:100210000130EC002F226B082100A40020006A08A6
:100220002100A3001729063020060319010005301C
:1002300021002006031991290B302006031D4329B4
:1002400006307306031D432970302000E900F430A6
:10025000E8000130EC00A230F101F10AA200703098
:100260006902F83003196802031891292F22220825
:10027000840085016A080006031DF101E80A0319DC
:10028000E90AA20A2F297308031D8F297030200064
:10029000E900F030E8000130EC002F226A08A300EA
:1002A0007030E900FC30E8000130EC002F226A08D1
:1002B0002306031D8F296A0A03198F290230E900DA
:1002C000A030E800EC01F2010830690200300319A7
:1002D0006802031874292F226A08F2076B08F207D4
:1002E000E80A0319E90A64297030E900F130E800EE
:1002F0000130EC002F226A087206031D8A29720859
:1003000003198A2922000C101F303F00ED008231B2
:10031000A02A8F29F030E800FF30E90046222000B3
:10032000EA01A0302000E8000030E9001822FF3088
:100330002100A000F30122000C109D28FF301E00B8
:100340001E0002301E0000301E0008000430200095
:10035000EA002430E8000030E900080041312000C4
:10036000EC013100951115139518B429F0211516DB
:1003700015156F22310095160030FF3FF0217F3FA9
:10038000FE00FF01FE35FF0D200068087E07840097
:1003900069087F3D8500003F31009300013F9400D4
:1003A00013082000EC07310014082000EC077F3F01
:1003B0001F3A031DDD29310095126F222000EA0A41
:1003C0000319EB0A7F3F013EFF3F7F3FFF002030D4
:1003D0007F02031CBE29EC13310015117F31080088
:1003E00020006B083100920020006A083100910063
:1003F0000800060884000708850001303C318002AF
:1004000000300131803B0131803B0131803B3D3187
:100410001200FF3AF4001200FF3AF4041200FF3A0F
:10042000F4041200FF3AF404031DF9297C3108009A
:1004300020006A0803192B2A6808840069088500CF
:10044000000823009A002000E80A0319E90AEA03D9
:10045000111A182A282A23009E1808002B2A200087
:100460006C0C3100031C15130318151720006908C4
:10047000310056221514000000003100140820003D
:10048000EB00310013082000EA000800310095114C
:100490001517151570305622200069083100930099
:1004A0006F2231009518512A151108009200200082
:1004B0006808310091000800413454342B344E3424
:1004C00041344D344534433444340034413454349D
:1004D0002B344234413455344434373400345530AD
:1004E00031009600AA309600951400000000080024
:1004F000413454342B34503449344E340034640085
:1005000080010131890B802A0034FF00FF00FF00C9
:10051000FF00FF00FF00FF00FF00FF00FF00FF00E3
:10052000FF00FF00FF00FF00FF00FF00FF00FF00D3
:10053000FF00FF00FF00FF00FF00FF00FF00FF00C3
:020000040001F9
:08000E00FCFF52FFFFDFFFFFC2
:08E1F00031343234333435348C
:02E1FC000134EC
:00000001FF
