:100000000C28FF00FF00FF00C33080318600203045
:1000100087008231642A09000D282030F001F101A7
:10002000F201F30184000030850008305022A03036
:100030008400003085004530502220009530860035
:100040002030870023288F3032009905F030990541
:100050001B1E2828283021008C0023008C013930F9
:1000600024008C0003303C00A40014303D009400B8
:10007000243023009E009F1190309D0020008C1A98
:1000800089288C1E4128CF3023009B000830200097
:10009000EA008230E9003730E800E92170302000C2
:1000A000E900F830E8000130EC0004307002031879
:1000B000652800227008243E840085016A088000BB
:1000C000F00AE80A0319E90A5528223023009B00A8
:1000D00009302000EA008230E9002D30E800E921F3
:1000E0009621E92106302000EA008230E9004930FB
:1000F000E800E9219621E921F0302000E800F830FD
:10010000680203188928FF30E90017222000E80A56
:100110007F28223023009B0099287308A03E84008A
:100120008501230019088000F30A20009112A00124
:10013000A1012000911A8D28A00A0319A10A200FFD
:100140009928210A031D992822000C14053020004B
:10015000EA007108031913292100200BD628FF306B
:100160002000EC0043307306031DD1282100220833
:100170002000EB00210021082000EA00A330E80065
:100180000030E90002306B02603003196A02031C80
:10019000D12808306B02003003196A020318D128F5
:1001A0009E2120006C082100A100132902302006A6
:1001B000031DF92870302000E900F330E800013019
:1001C000EC000022F43021002302031CEF28F83059
:1001D00023020318EF2820006A0A031D13292100B7
:1001E00021082000E800210023082000E900172250
:1001F000132904302006031D0F2922082000E900DE
:10020000210021082000E8000130EC0000226B08EA
:100210002100A40020006A082100A3001329063051
:100220002006031901000530210020060319892941
:100230000B302006031D3B2970302000E900F4300C
:10024000E8000130EC00A130F101F10AA2007030A9
:100250006902F8300319680203188929002222086C
:10026000840085016A080006031DF101E80A0319EC
:10027000E90AA20A27297308031D89297030200082
:10028000E900F030E8000130EC0000226A08A30029
:100290007030E900FC30E8000130EC0000226A0810
:1002A0002306031D87296A0A031987290230E900FA
:1002B0006030E800EC01F2010830690200300319F7
:1002C000680203186C2900226A08F2076B08F2071B
:1002D000E80A0319E90A5C297030E900F130E80006
:1002E0000130EC0000226A087206031D82297208A0
:1002F0000319822922000C101F303F00ED008231CB
:10030000602A8729F030E800FF30E900172220003A
:10031000EA01A0302000E8000030E900E921FF30C8
:100320002100A000F30122000C10992804302000C5
:10033000EA002430E8000030E900080041312000E4
:10034000EC013100951115139518A429E02115161B
:1003500015154022310095160030FF3FE0217F3F08
:10036000FE00FF01FE35FF0D200068087E078400B7
:1003700069087F3D8500003F31009300013F9400F4
:1003800013082000EC07310014082000EC077F3F21
:100390001F3A031DCD293100951240222000EA0AA0
:1003A0000319EB0A7F3F013EFF3F7F3FFF002030F4
:1003B0007F02031CAE29EC13310015117F310800B8
:1003C00020006B083100920020006A083100910083
:1003D000080020006A080319FC29680884006908DD
:1003E0008500000823009A002000E80A0319E90AA2
:1003F000EA03111AE929F92923009E180800FC29AB
:1004000020006C0C3100031C151303181517200075
:10041000690831002722151400000000310014087B
:100420002000EB00310013082000EA000800310032
:100430009511151715157030272220006908310015
:100440009300402231009518222A151108009200CD
:1004500020006808310091000800413454342B34E6
:100460004E3441344D344534433444340034413403
:1004700054342B344234413455344434373400340A
:10048000553031009600AA30960095140000000007
:100490000800413454342B34503449344E34003441
:1004A000640080010131890B512A0034FF00FF00F4
:1004B000FF00FF00FF00FF00FF00FF00FF00FF0044
:020000040001F9
:08000E00FCFF52FFFFDFFFFFC2
:08E1F00031343234333434348D
:02E1FC000134EC
:00000001FF
